{
  "_format": "hh-sol-artifact-1",
  "contractName": "UMARA_V2",
  "sourceName": "contracts/UMARA_V2.sol",
  "abi": [
    {
      "anonymous": false,
      "inputs": [
        {
          "indexed": false,
          "internalType": "address",
          "name": "previousAdmin",
          "type": "address"
        },
        {
          "indexed": false,
          "internalType": "address",
          "name": "newAdmin",
          "type": "address"
        }
      ],
      "name": "AdminChanged",
      "type": "event"
    },
    {
      "anonymous": false,
      "inputs": [
        {
          "indexed": true,
          "internalType": "address",
          "name": "owner",
          "type": "address"
        },
        {
          "indexed": true,
          "internalType": "address",
          "name": "approved",
          "type": "address"
        },
        {
          "indexed": true,
          "internalType": "uint256",
          "name": "tokenId",
          "type": "uint256"
        }
      ],
      "name": "Approval",
      "type": "event"
    },
    {
      "anonymous": false,
      "inputs": [
        {
          "indexed": true,
          "internalType": "address",
          "name": "owner",
          "type": "address"
        },
        {
          "indexed": true,
          "internalType": "address",
          "name": "operator",
          "type": "address"
        },
        {
          "indexed": false,
          "internalType": "bool",
          "name": "approved",
          "type": "bool"
        }
      ],
      "name": "ApprovalForAll",
      "type": "event"
    },
    {
      "anonymous": false,
      "inputs": [
        {
          "indexed": true,
          "internalType": "address",
          "name": "beacon",
          "type": "address"
        }
      ],
      "name": "BeaconUpgraded",
      "type": "event"
    },
    {
      "anonymous": false,
      "inputs": [
        {
          "indexed": false,
          "internalType": "uint8",
          "name": "version",
          "type": "uint8"
        }
      ],
      "name": "Initialized",
      "type": "event"
    },
    {
      "anonymous": false,
      "inputs": [
        {
          "indexed": true,
          "internalType": "address",
          "name": "previousOwner",
          "type": "address"
        },
        {
          "indexed": true,
          "internalType": "address",
          "name": "newOwner",
          "type": "address"
        }
      ],
      "name": "OwnershipTransferred",
      "type": "event"
    },
    {
      "anonymous": false,
      "inputs": [
        {
          "indexed": true,
          "internalType": "address",
          "name": "from",
          "type": "address"
        },
        {
          "indexed": true,
          "internalType": "address",
          "name": "to",
          "type": "address"
        },
        {
          "indexed": true,
          "internalType": "uint256",
          "name": "tokenId",
          "type": "uint256"
        }
      ],
      "name": "Transfer",
      "type": "event"
    },
    {
      "anonymous": false,
      "inputs": [
        {
          "indexed": true,
          "internalType": "address",
          "name": "implementation",
          "type": "address"
        }
      ],
      "name": "Upgraded",
      "type": "event"
    },
    {
      "inputs": [
        {
          "internalType": "address",
          "name": "to",
          "type": "address"
        },
        {
          "internalType": "uint256",
          "name": "tokenId",
          "type": "uint256"
        }
      ],
      "name": "approve",
      "outputs": [],
      "stateMutability": "nonpayable",
      "type": "function"
    },
    {
      "inputs": [
        {
          "internalType": "address",
          "name": "owner",
          "type": "address"
        }
      ],
      "name": "balanceOf",
      "outputs": [
        {
          "internalType": "uint256",
          "name": "",
          "type": "uint256"
        }
      ],
      "stateMutability": "view",
      "type": "function"
    },
    {
      "inputs": [],
      "name": "count",
      "outputs": [
        {
          "internalType": "uint256",
          "name": "",
          "type": "uint256"
        }
      ],
      "stateMutability": "view",
      "type": "function"
    },
    {
      "inputs": [
        {
          "internalType": "uint256",
          "name": "tokenId",
          "type": "uint256"
        }
      ],
      "name": "getApproved",
      "outputs": [
        {
          "internalType": "address",
          "name": "",
          "type": "address"
        }
      ],
      "stateMutability": "view",
      "type": "function"
    },
    {
      "inputs": [],
      "name": "initialize",
      "outputs": [],
      "stateMutability": "nonpayable",
      "type": "function"
    },
    {
      "inputs": [
        {
          "internalType": "address",
          "name": "owner",
          "type": "address"
        },
        {
          "internalType": "address",
          "name": "operator",
          "type": "address"
        }
      ],
      "name": "isApprovedForAll",
      "outputs": [
        {
          "internalType": "bool",
          "name": "",
          "type": "bool"
        }
      ],
      "stateMutability": "view",
      "type": "function"
    },
    {
      "inputs": [],
      "name": "name",
      "outputs": [
        {
          "internalType": "string",
          "name": "",
          "type": "string"
        }
      ],
      "stateMutability": "view",
      "type": "function"
    },
    {
      "inputs": [],
      "name": "owner",
      "outputs": [
        {
          "internalType": "address",
          "name": "",
          "type": "address"
        }
      ],
      "stateMutability": "view",
      "type": "function"
    },
    {
      "inputs": [
        {
          "internalType": "uint256",
          "name": "tokenId",
          "type": "uint256"
        }
      ],
      "name": "ownerOf",
      "outputs": [
        {
          "internalType": "address",
          "name": "",
          "type": "address"
        }
      ],
      "stateMutability": "view",
      "type": "function"
    },
    {
      "inputs": [],
      "name": "proxiableUUID",
      "outputs": [
        {
          "internalType": "bytes32",
          "name": "",
          "type": "bytes32"
        }
      ],
      "stateMutability": "view",
      "type": "function"
    },
    {
      "inputs": [],
      "name": "renounceOwnership",
      "outputs": [],
      "stateMutability": "nonpayable",
      "type": "function"
    },
    {
      "inputs": [
        {
          "internalType": "address",
          "name": "to",
          "type": "address"
        }
      ],
      "name": "safeMint",
      "outputs": [],
      "stateMutability": "nonpayable",
      "type": "function"
    },
    {
      "inputs": [
        {
          "internalType": "address",
          "name": "from",
          "type": "address"
        },
        {
          "internalType": "address",
          "name": "to",
          "type": "address"
        },
        {
          "internalType": "uint256",
          "name": "tokenId",
          "type": "uint256"
        }
      ],
      "name": "safeTransferFrom",
      "outputs": [],
      "stateMutability": "nonpayable",
      "type": "function"
    },
    {
      "inputs": [
        {
          "internalType": "address",
          "name": "from",
          "type": "address"
        },
        {
          "internalType": "address",
          "name": "to",
          "type": "address"
        },
        {
          "internalType": "uint256",
          "name": "tokenId",
          "type": "uint256"
        },
        {
          "internalType": "bytes",
          "name": "data",
          "type": "bytes"
        }
      ],
      "name": "safeTransferFrom",
      "outputs": [],
      "stateMutability": "nonpayable",
      "type": "function"
    },
    {
      "inputs": [
        {
          "internalType": "address",
          "name": "operator",
          "type": "address"
        },
        {
          "internalType": "bool",
          "name": "approved",
          "type": "bool"
        }
      ],
      "name": "setApprovalForAll",
      "outputs": [],
      "stateMutability": "nonpayable",
      "type": "function"
    },
    {
      "inputs": [
        {
          "internalType": "bytes4",
          "name": "interfaceId",
          "type": "bytes4"
        }
      ],
      "name": "supportsInterface",
      "outputs": [
        {
          "internalType": "bool",
          "name": "",
          "type": "bool"
        }
      ],
      "stateMutability": "view",
      "type": "function"
    },
    {
      "inputs": [],
      "name": "symbol",
      "outputs": [
        {
          "internalType": "string",
          "name": "",
          "type": "string"
        }
      ],
      "stateMutability": "view",
      "type": "function"
    },
    {
      "inputs": [
        {
          "internalType": "uint256",
          "name": "tokenId",
          "type": "uint256"
        }
      ],
      "name": "tokenURI",
      "outputs": [
        {
          "internalType": "string",
          "name": "",
          "type": "string"
        }
      ],
      "stateMutability": "view",
      "type": "function"
    },
    {
      "inputs": [
        {
          "internalType": "address",
          "name": "from",
          "type": "address"
        },
        {
          "internalType": "address",
          "name": "to",
          "type": "address"
        },
        {
          "internalType": "uint256",
          "name": "tokenId",
          "type": "uint256"
        }
      ],
      "name": "transferFrom",
      "outputs": [],
      "stateMutability": "nonpayable",
      "type": "function"
    },
    {
      "inputs": [
        {
          "internalType": "address",
          "name": "newOwner",
          "type": "address"
        }
      ],
      "name": "transferOwnership",
      "outputs": [],
      "stateMutability": "nonpayable",
      "type": "function"
    },
    {
      "inputs": [
        {
          "internalType": "address",
          "name": "newImplementation",
          "type": "address"
        }
      ],
      "name": "upgradeTo",
      "outputs": [],
      "stateMutability": "nonpayable",
      "type": "function"
    },
    {
      "inputs": [
        {
          "internalType": "address",
          "name": "newImplementation",
          "type": "address"
        },
        {
          "internalType": "bytes",
          "name": "data",
          "type": "bytes"
        }
      ],
      "name": "upgradeToAndCall",
      "outputs": [],
      "stateMutability": "payable",
      "type": "function"
    }
  ],
  "bytecode": "0x60a06040523073ffffffffffffffffffffffffffffffffffffffff1660809073ffffffffffffffffffffffffffffffffffffffff168152503480156200004457600080fd5b50620000556200005b60201b60201c565b62000205565b600060019054906101000a900460ff1615620000ae576040517f08c379a0000000000000000000000000000000000000000000000000000000008152600401620000a590620001a8565b60405180910390fd5b60ff801660008054906101000a900460ff1660ff16146200011f5760ff6000806101000a81548160ff021916908360ff1602179055507f7f26b83ff96e1f2b6a682f133852f6798a09c465da95921460cefb384740249860ff604051620001169190620001e8565b60405180910390a15b565b600082825260208201905092915050565b7f496e697469616c697a61626c653a20636f6e747261637420697320696e69746960008201527f616c697a696e6700000000000000000000000000000000000000000000000000602082015250565b60006200019060278362000121565b91506200019d8262000132565b604082019050919050565b60006020820190508181036000830152620001c38162000181565b9050919050565b600060ff82169050919050565b620001e281620001ca565b82525050565b6000602082019050620001ff6000830184620001d7565b92915050565b608051613f6e6200023d6000396000818161084b015281816108d901528181610a1b01528181610aa90152610b590152613f6e6000f3fe6080604052600436106101355760003560e01c80636352211e116100ab57806395d89b411161006f57806395d89b41146103f1578063a22cb4651461041c578063b88d4fde14610445578063c87b56dd1461046e578063e985e9c5146104ab578063f2fde38b146104e857610135565b80636352211e1461031e57806370a082311461035b578063715018a6146103985780638129fc1c146103af5780638da5cb5b146103c657610135565b806323b872dd116100fd57806323b872dd146102335780633659cfe61461025c57806340d097c31461028557806342842e0e146102ae5780634f1ef286146102d757806352d1902d146102f357610135565b806301ffc9a71461013a57806306661abd1461017757806306fdde03146101a2578063081812fc146101cd578063095ea7b31461020a575b600080fd5b34801561014657600080fd5b50610161600480360381019061015c91906127b5565b610511565b60405161016e91906127fd565b60405180910390f35b34801561018357600080fd5b5061018c6105f3565b6040516101999190612831565b60405180910390f35b3480156101ae57600080fd5b506101b76105fa565b6040516101c491906128dc565b60405180910390f35b3480156101d957600080fd5b506101f460048036038101906101ef919061292a565b61068c565b6040516102019190612998565b60405180910390f35b34801561021657600080fd5b50610231600480360381019061022c91906129df565b6106d2565b005b34801561023f57600080fd5b5061025a60048036038101906102559190612a1f565b6107e9565b005b34801561026857600080fd5b50610283600480360381019061027e9190612a72565b610849565b005b34801561029157600080fd5b506102ac60048036038101906102a79190612a72565b6109d1565b005b3480156102ba57600080fd5b506102d560048036038101906102d09190612a1f565b6109f9565b005b6102f160048036038101906102ec9190612bd4565b610a19565b005b3480156102ff57600080fd5b50610308610b55565b6040516103159190612c49565b60405180910390f35b34801561032a57600080fd5b506103456004803603810190610340919061292a565b610c0e565b6040516103529190612998565b60405180910390f35b34801561036757600080fd5b50610382600480360381019061037d9190612a72565b610c94565b60405161038f9190612831565b60405180910390f35b3480156103a457600080fd5b506103ad610d4b565b005b3480156103bb57600080fd5b506103c4610d5f565b005b3480156103d257600080fd5b506103db610f19565b6040516103e89190612998565b60405180910390f35b3480156103fd57600080fd5b50610406610f43565b60405161041391906128dc565b60405180910390f35b34801561042857600080fd5b50610443600480360381019061043e9190612c90565b610fd5565b005b34801561045157600080fd5b5061046c60048036038101906104679190612cd0565b610feb565b005b34801561047a57600080fd5b506104956004803603810190610490919061292a565b61104d565b6040516104a291906128dc565b60405180910390f35b3480156104b757600080fd5b506104d260048036038101906104cd9190612d53565b6110b5565b6040516104df91906127fd565b60405180910390f35b3480156104f457600080fd5b5061050f600480360381019061050a9190612a72565b611149565b005b60007f80ac58cd000000000000000000000000000000000000000000000000000000007bffffffffffffffffffffffffffffffffffffffffffffffffffffffff1916827bffffffffffffffffffffffffffffffffffffffffffffffffffffffff191614806105dc57507f5b5e139f000000000000000000000000000000000000000000000000000000007bffffffffffffffffffffffffffffffffffffffffffffffffffffffff1916827bffffffffffffffffffffffffffffffffffffffffffffffffffffffff1916145b806105ec57506105eb826111cc565b5b9050919050565b61012d5481565b60606065805461060990612dc2565b80601f016020809104026020016040519081016040528092919081815260200182805461063590612dc2565b80156106825780601f1061065757610100808354040283529160200191610682565b820191906000526020600020905b81548152906001019060200180831161066557829003601f168201915b5050505050905090565b600061069782611236565b6069600083815260200190815260200160002060009054906101000a900473ffffffffffffffffffffffffffffffffffffffff169050919050565b60006106dd82610c0e565b90508073ffffffffffffffffffffffffffffffffffffffff168373ffffffffffffffffffffffffffffffffffffffff160361074d576040517f08c379a000000000000000000000000000000000000000000000000000000000815260040161074490612e65565b60405180910390fd5b8073ffffffffffffffffffffffffffffffffffffffff1661076c611281565b73ffffffffffffffffffffffffffffffffffffffff16148061079b575061079a81610795611281565b6110b5565b5b6107da576040517f08c379a00000000000000000000000000000000000000000000000000000000081526004016107d190612ef7565b60405180910390fd5b6107e48383611289565b505050565b6107fa6107f4611281565b82611342565b610839576040517f08c379a000000000000000000000000000000000000000000000000000000000815260040161083090612f89565b60405180910390fd5b6108448383836113d7565b505050565b7f000000000000000000000000000000000000000000000000000000000000000073ffffffffffffffffffffffffffffffffffffffff163073ffffffffffffffffffffffffffffffffffffffff16036108d7576040517f08c379a00000000000000000000000000000000000000000000000000000000081526004016108ce9061301b565b60405180910390fd5b7f000000000000000000000000000000000000000000000000000000000000000073ffffffffffffffffffffffffffffffffffffffff166109166116d0565b73ffffffffffffffffffffffffffffffffffffffff161461096c576040517f08c379a0000000000000000000000000000000000000000000000000000000008152600401610963906130ad565b60405180910390fd5b61097581611727565b6109ce81600067ffffffffffffffff81111561099457610993612aa9565b5b6040519080825280601f01601f1916602001820160405280156109c65781602001600182028036833780820191505090505b506000611732565b50565b600061012d600081546109e3906130fc565b91905081905590506109f582826118a0565b5050565b610a1483838360405180602001604052806000815250610feb565b505050565b7f000000000000000000000000000000000000000000000000000000000000000073ffffffffffffffffffffffffffffffffffffffff163073ffffffffffffffffffffffffffffffffffffffff1603610aa7576040517f08c379a0000000000000000000000000000000000000000000000000000000008152600401610a9e9061301b565b60405180910390fd5b7f000000000000000000000000000000000000000000000000000000000000000073ffffffffffffffffffffffffffffffffffffffff16610ae66116d0565b73ffffffffffffffffffffffffffffffffffffffff1614610b3c576040517f08c379a0000000000000000000000000000000000000000000000000000000008152600401610b33906130ad565b60405180910390fd5b610b4582611727565b610b5182826001611732565b5050565b60007f000000000000000000000000000000000000000000000000000000000000000073ffffffffffffffffffffffffffffffffffffffff163073ffffffffffffffffffffffffffffffffffffffff1614610be5576040517f08c379a0000000000000000000000000000000000000000000000000000000008152600401610bdc906131b6565b60405180910390fd5b7f360894a13ba1a3210667c828492db98dca3e2076cc3735a920a3ca505d382bbc60001b905090565b600080610c1a836118be565b9050600073ffffffffffffffffffffffffffffffffffffffff168173ffffffffffffffffffffffffffffffffffffffff1603610c8b576040517f08c379a0000000000000000000000000000000000000000000000000000000008152600401610c8290613222565b60405180910390fd5b80915050919050565b60008073ffffffffffffffffffffffffffffffffffffffff168273ffffffffffffffffffffffffffffffffffffffff1603610d04576040517f08c379a0000000000000000000000000000000000000000000000000000000008152600401610cfb906132b4565b60405180910390fd5b606860008373ffffffffffffffffffffffffffffffffffffffff1673ffffffffffffffffffffffffffffffffffffffff168152602001908152602001600020549050919050565b610d536118fb565b610d5d6000611979565b565b60008060019054906101000a900460ff16159050808015610d905750600160008054906101000a900460ff1660ff16105b80610dbd5750610d9f30611a3f565b158015610dbc5750600160008054906101000a900460ff1660ff16145b5b610dfc576040517f08c379a0000000000000000000000000000000000000000000000000000000008152600401610df390613346565b60405180910390fd5b60016000806101000a81548160ff021916908360ff1602179055508015610e39576001600060016101000a81548160ff0219169083151502179055505b610ead6040518060400160405280600581526020017f554d4152410000000000000000000000000000000000000000000000000000008152506040518060400160405280600581526020017f554d415241000000000000000000000000000000000000000000000000000000815250611a62565b610eb5611abf565b610ebd611b18565b8015610f165760008060016101000a81548160ff0219169083151502179055507f7f26b83ff96e1f2b6a682f133852f6798a09c465da95921460cefb38474024986001604051610f0d91906133b8565b60405180910390a15b50565b6000609760009054906101000a900473ffffffffffffffffffffffffffffffffffffffff16905090565b606060668054610f5290612dc2565b80601f0160208091040260200160405190810160405280929190818152602001828054610f7e90612dc2565b8015610fcb5780601f10610fa057610100808354040283529160200191610fcb565b820191906000526020600020905b815481529060010190602001808311610fae57829003601f168201915b5050505050905090565b610fe7610fe0611281565b8383611b69565b5050565b610ffc610ff6611281565b83611342565b61103b576040517f08c379a000000000000000000000000000000000000000000000000000000000815260040161103290612f89565b60405180910390fd5b61104784848484611cd5565b50505050565b606061105882611236565b6000611062611d31565b9050600081511161108257604051806020016040528060008152506110ad565b8061108c84611d48565b60405160200161109d92919061340f565b6040516020818303038152906040525b915050919050565b6000606a60008473ffffffffffffffffffffffffffffffffffffffff1673ffffffffffffffffffffffffffffffffffffffff16815260200190815260200160002060008373ffffffffffffffffffffffffffffffffffffffff1673ffffffffffffffffffffffffffffffffffffffff16815260200190815260200160002060009054906101000a900460ff16905092915050565b6111516118fb565b600073ffffffffffffffffffffffffffffffffffffffff168173ffffffffffffffffffffffffffffffffffffffff16036111c0576040517f08c379a00000000000000000000000000000000000000000000000000000000081526004016111b7906134a5565b60405180910390fd5b6111c981611979565b50565b60007f01ffc9a7000000000000000000000000000000000000000000000000000000007bffffffffffffffffffffffffffffffffffffffffffffffffffffffff1916827bffffffffffffffffffffffffffffffffffffffffffffffffffffffff1916149050919050565b61123f81611e16565b61127e576040517f08c379a000000000000000000000000000000000000000000000000000000000815260040161127590613222565b60405180910390fd5b50565b600033905090565b816069600083815260200190815260200160002060006101000a81548173ffffffffffffffffffffffffffffffffffffffff021916908373ffffffffffffffffffffffffffffffffffffffff160217905550808273ffffffffffffffffffffffffffffffffffffffff166112fc83610c0e565b73ffffffffffffffffffffffffffffffffffffffff167f8c5be1e5ebec7d5bd14f71427d1e84f3dd0314c0f7b2291e5b200ac8c7c3b92560405160405180910390a45050565b60008061134e83610c0e565b90508073ffffffffffffffffffffffffffffffffffffffff168473ffffffffffffffffffffffffffffffffffffffff161480611390575061138f81856110b5565b5b806113ce57508373ffffffffffffffffffffffffffffffffffffffff166113b68461068c565b73ffffffffffffffffffffffffffffffffffffffff16145b91505092915050565b8273ffffffffffffffffffffffffffffffffffffffff166113f782610c0e565b73ffffffffffffffffffffffffffffffffffffffff161461144d576040517f08c379a000000000000000000000000000000000000000000000000000000000815260040161144490613537565b60405180910390fd5b600073ffffffffffffffffffffffffffffffffffffffff168273ffffffffffffffffffffffffffffffffffffffff16036114bc576040517f08c379a00000000000000000000000000000000000000000000000000000000081526004016114b3906135c9565b60405180910390fd5b6114c98383836001611e57565b8273ffffffffffffffffffffffffffffffffffffffff166114e982610c0e565b73ffffffffffffffffffffffffffffffffffffffff161461153f576040517f08c379a000000000000000000000000000000000000000000000000000000000815260040161153690613537565b60405180910390fd5b6069600082815260200190815260200160002060006101000a81549073ffffffffffffffffffffffffffffffffffffffff02191690556001606860008573ffffffffffffffffffffffffffffffffffffffff1673ffffffffffffffffffffffffffffffffffffffff168152602001908152602001600020600082825403925050819055506001606860008473ffffffffffffffffffffffffffffffffffffffff1673ffffffffffffffffffffffffffffffffffffffff16815260200190815260200160002060008282540192505081905550816067600083815260200190815260200160002060006101000a81548173ffffffffffffffffffffffffffffffffffffffff021916908373ffffffffffffffffffffffffffffffffffffffff160217905550808273ffffffffffffffffffffffffffffffffffffffff168473ffffffffffffffffffffffffffffffffffffffff167fddf252ad1be2c89b69c2b068fc378daa952ba7f163c4a11628f55a4df523b3ef60405160405180910390a46116cb8383836001611e5d565b505050565b60006116fe7f360894a13ba1a3210667c828492db98dca3e2076cc3735a920a3ca505d382bbc60001b611e63565b60000160009054906101000a900473ffffffffffffffffffffffffffffffffffffffff16905090565b61172f6118fb565b50565b61175e7f4910fdfa16fed3260ed0e7147f7cc6da11a60208b5b9406d12a635614ffd914360001b611e6d565b60000160009054906101000a900460ff16156117825761177d83611e77565b61189b565b8273ffffffffffffffffffffffffffffffffffffffff166352d1902d6040518163ffffffff1660e01b8152600401602060405180830381865afa9250505080156117ea57506040513d601f19601f820116820180604052508101906117e79190613615565b60015b611829576040517f08c379a0000000000000000000000000000000000000000000000000000000008152600401611820906136b4565b60405180910390fd5b7f360894a13ba1a3210667c828492db98dca3e2076cc3735a920a3ca505d382bbc60001b811461188e576040517f08c379a000000000000000000000000000000000000000000000000000000000815260040161188590613746565b60405180910390fd5b5061189a838383611f30565b5b505050565b6118ba828260405180602001604052806000815250611f5c565b5050565b60006067600083815260200190815260200160002060009054906101000a900473ffffffffffffffffffffffffffffffffffffffff169050919050565b611903611281565b73ffffffffffffffffffffffffffffffffffffffff16611921610f19565b73ffffffffffffffffffffffffffffffffffffffff1614611977576040517f08c379a000000000000000000000000000000000000000000000000000000000815260040161196e906137b2565b60405180910390fd5b565b6000609760009054906101000a900473ffffffffffffffffffffffffffffffffffffffff16905081609760006101000a81548173ffffffffffffffffffffffffffffffffffffffff021916908373ffffffffffffffffffffffffffffffffffffffff1602179055508173ffffffffffffffffffffffffffffffffffffffff168173ffffffffffffffffffffffffffffffffffffffff167f8be0079c531659141344cd1fd0a4f28419497f9722a3daafe3b4186f6b6457e060405160405180910390a35050565b6000808273ffffffffffffffffffffffffffffffffffffffff163b119050919050565b600060019054906101000a900460ff16611ab1576040517f08c379a0000000000000000000000000000000000000000000000000000000008152600401611aa890613844565b60405180910390fd5b611abb8282611fb7565b5050565b600060019054906101000a900460ff16611b0e576040517f08c379a0000000000000000000000000000000000000000000000000000000008152600401611b0590613844565b60405180910390fd5b611b1661202a565b565b600060019054906101000a900460ff16611b67576040517f08c379a0000000000000000000000000000000000000000000000000000000008152600401611b5e90613844565b60405180910390fd5b565b8173ffffffffffffffffffffffffffffffffffffffff168373ffffffffffffffffffffffffffffffffffffffff1603611bd7576040517f08c379a0000000000000000000000000000000000000000000000000000000008152600401611bce906138b0565b60405180910390fd5b80606a60008573ffffffffffffffffffffffffffffffffffffffff1673ffffffffffffffffffffffffffffffffffffffff16815260200190815260200160002060008473ffffffffffffffffffffffffffffffffffffffff1673ffffffffffffffffffffffffffffffffffffffff16815260200190815260200160002060006101000a81548160ff0219169083151502179055508173ffffffffffffffffffffffffffffffffffffffff168373ffffffffffffffffffffffffffffffffffffffff167f17307eab39ab6107e8899845ad3d59bd9653f200f220920489ca2b5937696c3183604051611cc891906127fd565b60405180910390a3505050565b611ce08484846113d7565b611cec8484848461208b565b611d2b576040517f08c379a0000000000000000000000000000000000000000000000000000000008152600401611d2290613942565b60405180910390fd5b50505050565b606060405180602001604052806000815250905090565b606060006001611d5784612212565b01905060008167ffffffffffffffff811115611d7657611d75612aa9565b5b6040519080825280601f01601f191660200182016040528015611da85781602001600182028036833780820191505090505b509050600082602001820190505b600115611e0b578080600190039150507f3031323334353637383961626364656600000000000000000000000000000000600a86061a8153600a8581611dff57611dfe613962565b5b04945060008503611db6575b819350505050919050565b60008073ffffffffffffffffffffffffffffffffffffffff16611e38836118be565b73ffffffffffffffffffffffffffffffffffffffff1614159050919050565b50505050565b50505050565b6000819050919050565b6000819050919050565b611e8081611a3f565b611ebf576040517f08c379a0000000000000000000000000000000000000000000000000000000008152600401611eb690613a03565b60405180910390fd5b80611eec7f360894a13ba1a3210667c828492db98dca3e2076cc3735a920a3ca505d382bbc60001b611e63565b60000160006101000a81548173ffffffffffffffffffffffffffffffffffffffff021916908373ffffffffffffffffffffffffffffffffffffffff16021790555050565b611f3983612365565b600082511180611f465750805b15611f5757611f5583836123b4565b505b505050565b611f6683836123e1565b611f73600084848461208b565b611fb2576040517f08c379a0000000000000000000000000000000000000000000000000000000008152600401611fa990613942565b60405180910390fd5b505050565b600060019054906101000a900460ff16612006576040517f08c379a0000000000000000000000000000000000000000000000000000000008152600401611ffd90613844565b60405180910390fd5b81606590816120159190613bc5565b5080606690816120259190613bc5565b505050565b600060019054906101000a900460ff16612079576040517f08c379a000000000000000000000000000000000000000000000000000000000815260040161207090613844565b60405180910390fd5b612089612084611281565b611979565b565b60006120ac8473ffffffffffffffffffffffffffffffffffffffff16611a3f565b15612205578373ffffffffffffffffffffffffffffffffffffffff1663150b7a026120d5611281565b8786866040518563ffffffff1660e01b81526004016120f79493929190613cec565b6020604051808303816000875af192505050801561213357506040513d601f19601f820116820180604052508101906121309190613d4d565b60015b6121b5573d8060008114612163576040519150601f19603f3d011682016040523d82523d6000602084013e612168565b606091505b5060008151036121ad576040517f08c379a00000000000000000000000000000000000000000000000000000000081526004016121a490613942565b60405180910390fd5b805181602001fd5b63150b7a0260e01b7bffffffffffffffffffffffffffffffffffffffffffffffffffffffff1916817bffffffffffffffffffffffffffffffffffffffffffffffffffffffff19161491505061220a565b600190505b949350505050565b600080600090507a184f03e93ff9f4daa797ed6e38ed64bf6a1f0100000000000000008310612270577a184f03e93ff9f4daa797ed6e38ed64bf6a1f010000000000000000838161226657612265613962565b5b0492506040810190505b6d04ee2d6d415b85acef810000000083106122ad576d04ee2d6d415b85acef810000000083816122a3576122a2613962565b5b0492506020810190505b662386f26fc1000083106122dc57662386f26fc1000083816122d2576122d1613962565b5b0492506010810190505b6305f5e1008310612305576305f5e10083816122fb576122fa613962565b5b0492506008810190505b612710831061232a5761271083816123205761231f613962565b5b0492506004810190505b6064831061234d576064838161234357612342613962565b5b0492506002810190505b600a831061235c576001810190505b80915050919050565b61236e81611e77565b8073ffffffffffffffffffffffffffffffffffffffff167fbc7cd75a20ee27fd9adebab32041f755214dbc6bffa90cc0225b39da2e5c2d3b60405160405180910390a250565b60606123d98383604051806060016040528060278152602001613f12602791396125fe565b905092915050565b600073ffffffffffffffffffffffffffffffffffffffff168273ffffffffffffffffffffffffffffffffffffffff1603612450576040517f08c379a000000000000000000000000000000000000000000000000000000000815260040161244790613dc6565b60405180910390fd5b61245981611e16565b15612499576040517f08c379a000000000000000000000000000000000000000000000000000000000815260040161249090613e32565b60405180910390fd5b6124a7600083836001611e57565b6124b081611e16565b156124f0576040517f08c379a00000000000000000000000000000000000000000000000000000000081526004016124e790613e32565b60405180910390fd5b6001606860008473ffffffffffffffffffffffffffffffffffffffff1673ffffffffffffffffffffffffffffffffffffffff16815260200190815260200160002060008282540192505081905550816067600083815260200190815260200160002060006101000a81548173ffffffffffffffffffffffffffffffffffffffff021916908373ffffffffffffffffffffffffffffffffffffffff160217905550808273ffffffffffffffffffffffffffffffffffffffff16600073ffffffffffffffffffffffffffffffffffffffff167fddf252ad1be2c89b69c2b068fc378daa952ba7f163c4a11628f55a4df523b3ef60405160405180910390a46125fa600083836001611e5d565b5050565b60606000808573ffffffffffffffffffffffffffffffffffffffff16856040516126289190613e8e565b600060405180830381855af49150503d8060008114612663576040519150601f19603f3d011682016040523d82523d6000602084013e612668565b606091505b509150915061267986838387612684565b925050509392505050565b606083156126e65760008351036126de5761269e85611a3f565b6126dd576040517f08c379a00000000000000000000000000000000000000000000000000000000081526004016126d490613ef1565b60405180910390fd5b5b8290506126f1565b6126f083836126f9565b5b949350505050565b60008251111561270c5781518083602001fd5b806040517f08c379a000000000000000000000000000000000000000000000000000000000815260040161274091906128dc565b60405180910390fd5b6000604051905090565b600080fd5b600080fd5b60007fffffffff0000000000000000000000000000000000000000000000000000000082169050919050565b6127928161275d565b811461279d57600080fd5b50565b6000813590506127af81612789565b92915050565b6000602082840312156127cb576127ca612753565b5b60006127d9848285016127a0565b91505092915050565b60008115159050919050565b6127f7816127e2565b82525050565b600060208201905061281260008301846127ee565b92915050565b6000819050919050565b61282b81612818565b82525050565b60006020820190506128466000830184612822565b92915050565b600081519050919050565b600082825260208201905092915050565b60005b8381101561288657808201518184015260208101905061286b565b60008484015250505050565b6000601f19601f8301169050919050565b60006128ae8261284c565b6128b88185612857565b93506128c8818560208601612868565b6128d181612892565b840191505092915050565b600060208201905081810360008301526128f681846128a3565b905092915050565b61290781612818565b811461291257600080fd5b50565b600081359050612924816128fe565b92915050565b6000602082840312156129405761293f612753565b5b600061294e84828501612915565b91505092915050565b600073ffffffffffffffffffffffffffffffffffffffff82169050919050565b600061298282612957565b9050919050565b61299281612977565b82525050565b60006020820190506129ad6000830184612989565b92915050565b6129bc81612977565b81146129c757600080fd5b50565b6000813590506129d9816129b3565b92915050565b600080604083850312156129f6576129f5612753565b5b6000612a04858286016129ca565b9250506020612a1585828601612915565b9150509250929050565b600080600060608486031215612a3857612a37612753565b5b6000612a46868287016129ca565b9350506020612a57868287016129ca565b9250506040612a6886828701612915565b9150509250925092565b600060208284031215612a8857612a87612753565b5b6000612a96848285016129ca565b91505092915050565b600080fd5b600080fd5b7f4e487b7100000000000000000000000000000000000000000000000000000000600052604160045260246000fd5b612ae182612892565b810181811067ffffffffffffffff82111715612b0057612aff612aa9565b5b80604052505050565b6000612b13612749565b9050612b1f8282612ad8565b919050565b600067ffffffffffffffff821115612b3f57612b3e612aa9565b5b612b4882612892565b9050602081019050919050565b82818337600083830152505050565b6000612b77612b7284612b24565b612b09565b905082815260208101848484011115612b9357612b92612aa4565b5b612b9e848285612b55565b509392505050565b600082601f830112612bbb57612bba612a9f565b5b8135612bcb848260208601612b64565b91505092915050565b60008060408385031215612beb57612bea612753565b5b6000612bf9858286016129ca565b925050602083013567ffffffffffffffff811115612c1a57612c19612758565b5b612c2685828601612ba6565b9150509250929050565b6000819050919050565b612c4381612c30565b82525050565b6000602082019050612c5e6000830184612c3a565b92915050565b612c6d816127e2565b8114612c7857600080fd5b50565b600081359050612c8a81612c64565b92915050565b60008060408385031215612ca757612ca6612753565b5b6000612cb5858286016129ca565b9250506020612cc685828601612c7b565b9150509250929050565b60008060008060808587031215612cea57612ce9612753565b5b6000612cf8878288016129ca565b9450506020612d09878288016129ca565b9350506040612d1a87828801612915565b925050606085013567ffffffffffffffff811115612d3b57612d3a612758565b5b612d4787828801612ba6565b91505092959194509250565b60008060408385031215612d6a57612d69612753565b5b6000612d78858286016129ca565b9250506020612d89858286016129ca565b9150509250929050565b7f4e487b7100000000000000000000000000000000000000000000000000000000600052602260045260246000fd5b60006002820490506001821680612dda57607f821691505b602082108103612ded57612dec612d93565b5b50919050565b7f4552433732313a20617070726f76616c20746f2063757272656e74206f776e6560008201527f7200000000000000000000000000000000000000000000000000000000000000602082015250565b6000612e4f602183612857565b9150612e5a82612df3565b604082019050919050565b60006020820190508181036000830152612e7e81612e42565b9050919050565b7f4552433732313a20617070726f76652063616c6c6572206973206e6f7420746f60008201527f6b656e206f776e6572206f7220617070726f76656420666f7220616c6c000000602082015250565b6000612ee1603d83612857565b9150612eec82612e85565b604082019050919050565b60006020820190508181036000830152612f1081612ed4565b9050919050565b7f4552433732313a2063616c6c6572206973206e6f7420746f6b656e206f776e6560008201527f72206f7220617070726f76656400000000000000000000000000000000000000602082015250565b6000612f73602d83612857565b9150612f7e82612f17565b604082019050919050565b60006020820190508181036000830152612fa281612f66565b9050919050565b7f46756e6374696f6e206d7573742062652063616c6c6564207468726f7567682060008201527f64656c656761746563616c6c0000000000000000000000000000000000000000602082015250565b6000613005602c83612857565b915061301082612fa9565b604082019050919050565b6000602082019050818103600083015261303481612ff8565b9050919050565b7f46756e6374696f6e206d7573742062652063616c6c6564207468726f7567682060008201527f6163746976652070726f78790000000000000000000000000000000000000000602082015250565b6000613097602c83612857565b91506130a28261303b565b604082019050919050565b600060208201905081810360008301526130c68161308a565b9050919050565b7f4e487b7100000000000000000000000000000000000000000000000000000000600052601160045260246000fd5b600061310782612818565b91507fffffffffffffffffffffffffffffffffffffffffffffffffffffffffffffffff8203613139576131386130cd565b5b600182019050919050565b7f555550535570677261646561626c653a206d757374206e6f742062652063616c60008201527f6c6564207468726f7567682064656c656761746563616c6c0000000000000000602082015250565b60006131a0603883612857565b91506131ab82613144565b604082019050919050565b600060208201905081810360008301526131cf81613193565b9050919050565b7f4552433732313a20696e76616c696420746f6b656e2049440000000000000000600082015250565b600061320c601883612857565b9150613217826131d6565b602082019050919050565b6000602082019050818103600083015261323b816131ff565b9050919050565b7f4552433732313a2061646472657373207a65726f206973206e6f74206120766160008201527f6c6964206f776e65720000000000000000000000000000000000000000000000602082015250565b600061329e602983612857565b91506132a982613242565b604082019050919050565b600060208201905081810360008301526132cd81613291565b9050919050565b7f496e697469616c697a61626c653a20636f6e747261637420697320616c72656160008201527f647920696e697469616c697a6564000000000000000000000000000000000000602082015250565b6000613330602e83612857565b915061333b826132d4565b604082019050919050565b6000602082019050818103600083015261335f81613323565b9050919050565b6000819050919050565b600060ff82169050919050565b6000819050919050565b60006133a261339d61339884613366565b61337d565b613370565b9050919050565b6133b281613387565b82525050565b60006020820190506133cd60008301846133a9565b92915050565b600081905092915050565b60006133e98261284c565b6133f381856133d3565b9350613403818560208601612868565b80840191505092915050565b600061341b82856133de565b915061342782846133de565b91508190509392505050565b7f4f776e61626c653a206e6577206f776e657220697320746865207a65726f206160008201527f6464726573730000000000000000000000000000000000000000000000000000602082015250565b600061348f602683612857565b915061349a82613433565b604082019050919050565b600060208201905081810360008301526134be81613482565b9050919050565b7f4552433732313a207472616e736665722066726f6d20696e636f72726563742060008201527f6f776e6572000000000000000000000000000000000000000000000000000000602082015250565b6000613521602583612857565b915061352c826134c5565b604082019050919050565b6000602082019050818103600083015261355081613514565b9050919050565b7f4552433732313a207472616e7366657220746f20746865207a65726f2061646460008201527f7265737300000000000000000000000000000000000000000000000000000000602082015250565b60006135b3602483612857565b91506135be82613557565b604082019050919050565b600060208201905081810360008301526135e2816135a6565b9050919050565b6135f281612c30565b81146135fd57600080fd5b50565b60008151905061360f816135e9565b92915050565b60006020828403121561362b5761362a612753565b5b600061363984828501613600565b91505092915050565b7f45524331393637557067726164653a206e657720696d706c656d656e7461746960008201527f6f6e206973206e6f742055555053000000000000000000000000000000000000602082015250565b600061369e602e83612857565b91506136a982613642565b604082019050919050565b600060208201905081810360008301526136cd81613691565b9050919050565b7f45524331393637557067726164653a20756e737570706f727465642070726f7860008201527f6961626c65555549440000000000000000000000000000000000000000000000602082015250565b6000613730602983612857565b915061373b826136d4565b604082019050919050565b6000602082019050818103600083015261375f81613723565b9050919050565b7f4f776e61626c653a2063616c6c6572206973206e6f7420746865206f776e6572600082015250565b600061379c602083612857565b91506137a782613766565b602082019050919050565b600060208201905081810360008301526137cb8161378f565b9050919050565b7f496e697469616c697a61626c653a20636f6e7472616374206973206e6f74206960008201527f6e697469616c697a696e67000000000000000000000000000000000000000000602082015250565b600061382e602b83612857565b9150613839826137d2565b604082019050919050565b6000602082019050818103600083015261385d81613821565b9050919050565b7f4552433732313a20617070726f766520746f2063616c6c657200000000000000600082015250565b600061389a601983612857565b91506138a582613864565b602082019050919050565b600060208201905081810360008301526138c98161388d565b9050919050565b7f4552433732313a207472616e7366657220746f206e6f6e20455243373231526560008201527f63656976657220696d706c656d656e7465720000000000000000000000000000602082015250565b600061392c603283612857565b9150613937826138d0565b604082019050919050565b6000602082019050818103600083015261395b8161391f565b9050919050565b7f4e487b7100000000000000000000000000000000000000000000000000000000600052601260045260246000fd5b7f455243313936373a206e657720696d706c656d656e746174696f6e206973206e60008201527f6f74206120636f6e747261637400000000000000000000000000000000000000602082015250565b60006139ed602d83612857565b91506139f882613991565b604082019050919050565b60006020820190508181036000830152613a1c816139e0565b9050919050565b60008190508160005260206000209050919050565b60006020601f8301049050919050565b600082821b905092915050565b600060088302613a857fffffffffffffffffffffffffffffffffffffffffffffffffffffffffffffffff82613a48565b613a8f8683613a48565b95508019841693508086168417925050509392505050565b6000613ac2613abd613ab884612818565b61337d565b612818565b9050919050565b6000819050919050565b613adc83613aa7565b613af0613ae882613ac9565b848454613a55565b825550505050565b600090565b613b05613af8565b613b10818484613ad3565b505050565b5b81811015613b3457613b29600082613afd565b600181019050613b16565b5050565b601f821115613b7957613b4a81613a23565b613b5384613a38565b81016020851015613b62578190505b613b76613b6e85613a38565b830182613b15565b50505b505050565b600082821c905092915050565b6000613b9c60001984600802613b7e565b1980831691505092915050565b6000613bb58383613b8b565b9150826002028217905092915050565b613bce8261284c565b67ffffffffffffffff811115613be757613be6612aa9565b5b613bf18254612dc2565b613bfc828285613b38565b600060209050601f831160018114613c2f5760008415613c1d578287015190505b613c278582613ba9565b865550613c8f565b601f198416613c3d86613a23565b60005b82811015613c6557848901518255600182019150602085019450602081019050613c40565b86831015613c825784890151613c7e601f891682613b8b565b8355505b6001600288020188555050505b505050505050565b600081519050919050565b600082825260208201905092915050565b6000613cbe82613c97565b613cc88185613ca2565b9350613cd8818560208601612868565b613ce181612892565b840191505092915050565b6000608082019050613d016000830187612989565b613d0e6020830186612989565b613d1b6040830185612822565b8181036060830152613d2d8184613cb3565b905095945050505050565b600081519050613d4781612789565b92915050565b600060208284031215613d6357613d62612753565b5b6000613d7184828501613d38565b91505092915050565b7f4552433732313a206d696e7420746f20746865207a65726f2061646472657373600082015250565b6000613db0602083612857565b9150613dbb82613d7a565b602082019050919050565b60006020820190508181036000830152613ddf81613da3565b9050919050565b7f4552433732313a20746f6b656e20616c7265616479206d696e74656400000000600082015250565b6000613e1c601c83612857565b9150613e2782613de6565b602082019050919050565b60006020820190508181036000830152613e4b81613e0f565b9050919050565b600081905092915050565b6000613e6882613c97565b613e728185613e52565b9350613e82818560208601612868565b80840191505092915050565b6000613e9a8284613e5d565b915081905092915050565b7f416464726573733a2063616c6c20746f206e6f6e2d636f6e7472616374000000600082015250565b6000613edb601d83612857565b9150613ee682613ea5565b602082019050919050565b60006020820190508181036000830152613f0a81613ece565b905091905056fe416464726573733a206c6f772d6c6576656c2064656c65676174652063616c6c206661696c6564a264697066735822122071918803caea0745c2bda806e58d941edff2f37d2171d123f3eb74c96e8292b064736f6c63430008120033",
  "linkReferences": {},
  "deployedLinkReferences": {}
}